{
  "_format": "hh-sol-artifact-1",
  "contractName": "Pauser",
  "sourceName": "contracts/Pauser.sol",
  "abi": [
    {
      "inputs": [],
      "stateMutability": "nonpayable",
      "type": "constructor"
    },
    {
      "inputs": [],
      "name": "AccessControlBadConfirmation",
      "type": "error"
    },
    {
      "inputs": [
        {
          "internalType": "address",
          "name": "account",
          "type": "address"
        },
        {
          "internalType": "bytes32",
          "name": "neededRole",
          "type": "bytes32"
        }
      ],
      "name": "AccessControlUnauthorizedAccount",
      "type": "error"
    },
    {
      "inputs": [],
      "name": "InvalidInitialization",
      "type": "error"
    },
    {
      "inputs": [],
      "name": "NotInitializing",
      "type": "error"
    },
    {
      "inputs": [
        {
          "internalType": "address",
          "name": "sender",
          "type": "address"
        }
      ],
      "name": "PauserRoleNotRequired",
      "type": "error"
    },
    {
      "anonymous": false,
      "inputs": [
        {
          "indexed": true,
          "internalType": "bytes4",
          "name": "selector",
          "type": "bytes4"
        },
        {
          "indexed": true,
          "internalType": "bool",
          "name": "isPaused",
          "type": "bool"
        },
        {
          "indexed": false,
          "internalType": "string",
          "name": "flagName",
          "type": "string"
        }
      ],
      "name": "FlagUpdated",
      "type": "event"
    },
    {
      "anonymous": false,
      "inputs": [
        {
          "indexed": false,
          "internalType": "uint64",
          "name": "version",
          "type": "uint64"
        }
      ],
      "name": "Initialized",
      "type": "event"
    },
    {
      "anonymous": false,
      "inputs": [
        {
          "indexed": true,
          "internalType": "bytes32",
          "name": "role",
          "type": "bytes32"
        },
        {
          "indexed": true,
          "internalType": "bytes32",
          "name": "previousAdminRole",
          "type": "bytes32"
        },
        {
          "indexed": true,
          "internalType": "bytes32",
          "name": "newAdminRole",
          "type": "bytes32"
        }
      ],
      "name": "RoleAdminChanged",
      "type": "event"
    },
    {
      "anonymous": false,
      "inputs": [
        {
          "indexed": true,
          "internalType": "bytes32",
          "name": "role",
          "type": "bytes32"
        },
        {
          "indexed": true,
          "internalType": "address",
          "name": "account",
          "type": "address"
        },
        {
          "indexed": true,
          "internalType": "address",
          "name": "sender",
          "type": "address"
        }
      ],
      "name": "RoleGranted",
      "type": "event"
    },
    {
      "anonymous": false,
      "inputs": [
        {
          "indexed": true,
          "internalType": "bytes32",
          "name": "role",
          "type": "bytes32"
        },
        {
          "indexed": true,
          "internalType": "address",
          "name": "account",
          "type": "address"
        },
        {
          "indexed": true,
          "internalType": "address",
          "name": "sender",
          "type": "address"
        }
      ],
      "name": "RoleRevoked",
      "type": "event"
    },
    {
      "inputs": [],
      "name": "DEFAULT_ADMIN_ROLE",
      "outputs": [
        {
          "internalType": "bytes32",
          "name": "",
          "type": "bytes32"
        }
      ],
      "stateMutability": "view",
      "type": "function"
    },
    {
      "inputs": [],
      "name": "PAUSER_ROLE",
      "outputs": [
        {
          "internalType": "bytes32",
          "name": "",
          "type": "bytes32"
        }
      ],
      "stateMutability": "view",
      "type": "function"
    },
    {
      "inputs": [],
      "name": "UNPAUSER_ROLE",
      "outputs": [
        {
          "internalType": "bytes32",
          "name": "",
          "type": "bytes32"
        }
      ],
      "stateMutability": "view",
      "type": "function"
    },
    {
      "inputs": [
        {
          "internalType": "bytes32",
          "name": "role",
          "type": "bytes32"
        }
      ],
      "name": "getRoleAdmin",
      "outputs": [
        {
          "internalType": "bytes32",
          "name": "",
          "type": "bytes32"
        }
      ],
      "stateMutability": "view",
      "type": "function"
    },
    {
      "inputs": [
        {
          "internalType": "bytes32",
          "name": "role",
          "type": "bytes32"
        },
        {
          "internalType": "uint256",
          "name": "index",
          "type": "uint256"
        }
      ],
      "name": "getRoleMember",
      "outputs": [
        {
          "internalType": "address",
          "name": "",
          "type": "address"
        }
      ],
      "stateMutability": "view",
      "type": "function"
    },
    {
      "inputs": [
        {
          "internalType": "bytes32",
          "name": "role",
          "type": "bytes32"
        }
      ],
      "name": "getRoleMemberCount",
      "outputs": [
        {
          "internalType": "uint256",
          "name": "",
          "type": "uint256"
        }
      ],
      "stateMutability": "view",
      "type": "function"
    },
    {
      "inputs": [
        {
          "internalType": "bytes32",
          "name": "role",
          "type": "bytes32"
        },
        {
          "internalType": "address",
          "name": "account",
          "type": "address"
        }
      ],
      "name": "grantRole",
      "outputs": [],
      "stateMutability": "nonpayable",
      "type": "function"
    },
    {
      "inputs": [
        {
          "internalType": "bytes32",
          "name": "role",
          "type": "bytes32"
        },
        {
          "internalType": "address",
          "name": "account",
          "type": "address"
        }
      ],
      "name": "hasRole",
      "outputs": [
        {
          "internalType": "bool",
          "name": "",
          "type": "bool"
        }
      ],
      "stateMutability": "view",
      "type": "function"
    },
    {
      "inputs": [
        {
          "components": [
            {
              "internalType": "address",
              "name": "admin",
              "type": "address"
            },
            {
              "internalType": "address",
              "name": "pauser",
              "type": "address"
            },
            {
              "internalType": "address",
              "name": "unpauser",
              "type": "address"
            }
          ],
          "internalType": "struct Pauser.Init",
          "name": "init",
          "type": "tuple"
        }
      ],
      "name": "initialize",
      "outputs": [],
      "stateMutability": "nonpayable",
      "type": "function"
    },
    {
      "inputs": [],
      "name": "isAllocationPaused",
      "outputs": [
        {
          "internalType": "bool",
          "name": "",
          "type": "bool"
        }
      ],
      "stateMutability": "view",
      "type": "function"
    },
    {
      "inputs": [],
      "name": "isClaimPaused",
      "outputs": [
        {
          "internalType": "bool",
          "name": "",
          "type": "bool"
        }
      ],
      "stateMutability": "view",
      "type": "function"
    },
    {
      "inputs": [],
      "name": "isStakingPaused",
      "outputs": [
        {
          "internalType": "bool",
          "name": "",
          "type": "bool"
        }
      ],
      "stateMutability": "view",
      "type": "function"
    },
    {
      "inputs": [],
      "name": "pauseAll",
      "outputs": [],
      "stateMutability": "nonpayable",
      "type": "function"
    },
    {
      "inputs": [
        {
          "internalType": "bytes32",
          "name": "role",
          "type": "bytes32"
        },
        {
          "internalType": "address",
          "name": "callerConfirmation",
          "type": "address"
        }
      ],
      "name": "renounceRole",
      "outputs": [],
      "stateMutability": "nonpayable",
      "type": "function"
    },
    {
      "inputs": [
        {
          "internalType": "bytes32",
          "name": "role",
          "type": "bytes32"
        },
        {
          "internalType": "address",
          "name": "account",
          "type": "address"
        }
      ],
      "name": "revokeRole",
      "outputs": [],
      "stateMutability": "nonpayable",
      "type": "function"
    },
    {
      "inputs": [
        {
          "internalType": "bool",
          "name": "isPaused",
          "type": "bool"
        }
      ],
      "name": "setIsAllocationPaused",
      "outputs": [],
      "stateMutability": "nonpayable",
      "type": "function"
    },
    {
      "inputs": [
        {
          "internalType": "bool",
          "name": "isPaused",
          "type": "bool"
        }
      ],
      "name": "setIsClaimPaused",
      "outputs": [],
      "stateMutability": "nonpayable",
      "type": "function"
    },
    {
      "inputs": [
        {
          "internalType": "bool",
          "name": "isPaused",
          "type": "bool"
        }
      ],
      "name": "setIsStakingPaused",
      "outputs": [],
      "stateMutability": "nonpayable",
      "type": "function"
    },
    {
      "inputs": [
        {
          "internalType": "bytes4",
          "name": "interfaceId",
          "type": "bytes4"
        }
      ],
      "name": "supportsInterface",
      "outputs": [
        {
          "internalType": "bool",
          "name": "",
          "type": "bool"
        }
      ],
      "stateMutability": "view",
      "type": "function"
    },
    {
      "inputs": [],
      "name": "unpauseAll",
      "outputs": [],
      "stateMutability": "nonpayable",
      "type": "function"
    }
  ],
  "bytecode": "0x60806040523480156200001157600080fd5b50620000226200002860201b60201c565b6200019c565b60006200003a6200013260201b60201c565b90508060000160089054906101000a900460ff161562000086576040517ff92ee8a900000000000000000000000000000000000000000000000000000000815260040160405180910390fd5b67ffffffffffffffff80168160000160009054906101000a900467ffffffffffffffff1667ffffffffffffffff16146200012f5767ffffffffffffffff8160000160006101000a81548167ffffffffffffffff021916908367ffffffffffffffff1602179055507fc7f505b2f371ae2175ee4913f4499e1f2633a7b5936321eed1cdaeb6115181d267ffffffffffffffff6040516200012691906200017f565b60405180910390a15b50565b60007ff0c57e16840df040f15088dc2f81fe391c3923bec73e23a9662efc9c229c6a00905090565b600067ffffffffffffffff82169050919050565b62000179816200015a565b82525050565b60006020820190506200019660008301846200016e565b92915050565b611a9a80620001ac6000396000f3fe608060405234801561001057600080fd5b506004361061012c5760003560e01c80638a2ddd03116100ad578063d26b3e2611610071578063d26b3e261461031d578063d547741f14610339578063e63ab1e914610355578063fb1bb9de14610373578063fcc9d868146103915761012c565b80638a2ddd03146102655780639010d07c1461026f57806391d148541461029f578063a217fddf146102cf578063ca15c873146102ed5761012c565b806350bc9995116100f457806350bc9995146101e7578063595c6a67146102055780636c8bcba21461020f5780636cb85f861461022b57806371275a08146102475761012c565b806301ffc9a7146101315780631ea7ca8914610161578063248a9ca31461017f5780632f2ff15d146101af57806336568abe146101cb575b600080fd5b61014b600480360381019061014691906113de565b6103ad565b6040516101589190611426565b60405180910390f35b610169610427565b6040516101769190611426565b60405180910390f35b61019960048036038101906101949190611477565b610438565b6040516101a691906114b3565b60405180910390f35b6101c960048036038101906101c4919061152c565b610466565b005b6101e560048036038101906101e0919061152c565b610488565b005b6101ef610503565b6040516101fc9190611426565b60405180910390f35b61020d610516565b005b61022960048036038101906102249190611598565b61053e565b005b61024560048036038101906102409190611598565b6105aa565b005b61024f610616565b60405161025c9190611426565b60405180910390f35b61026d610629565b005b610289600480360381019061028491906115fb565b610674565b604051610296919061164a565b60405180910390f35b6102b960048036038101906102b4919061152c565b6106b1565b6040516102c69190611426565b60405180910390f35b6102d761072a565b6040516102e491906114b3565b60405180910390f35b61030760048036038101906103029190611477565b610731565b6040516103149190611674565b60405180910390f35b61033760048036038101906103329190611784565b610763565b005b610353600480360381019061034e919061152c565b610961565b005b61035d610983565b60405161036a91906114b3565b60405180910390f35b61037b6109a7565b60405161038891906114b3565b60405180910390f35b6103ab60048036038101906103a69190611598565b6109cb565b005b60007f5a05180f000000000000000000000000000000000000000000000000000000007bffffffffffffffffffffffffffffffffffffffffffffffffffffffff1916827bffffffffffffffffffffffffffffffffffffffffffffffffffffffff19161480610420575061041f82610a37565b5b9050919050565b60008054906101000a900460ff1681565b600080610443610ab1565b905080600001600084815260200190815260200160002060010154915050919050565b61046f82610438565b61047881610ad9565b6104828383610aed565b50505050565b610490610b42565b73ffffffffffffffffffffffffffffffffffffffff168173ffffffffffffffffffffffffffffffffffffffff16146104f4576040517f6697b23200000000000000000000000000000000000000000000000000000000815260040160405180910390fd5b6104fe8282610b4a565b505050565b600060029054906101000a900460ff1681565b61051e610b9f565b6105286001610c1a565b6105326001610c95565b61053c6001610d11565b565b8080156105735761056e7f65d7a28e3265b37a6474929f336521b332c1681b933f6cb9f3376673440d862a610ad9565b61059d565b61059c7f427da25fe773164f88948d3e215c94b6554e2ed5e5f203a821c9f2f6131cf75a610ad9565b5b6105a682610c95565b5050565b8080156105df576105da7f65d7a28e3265b37a6474929f336521b332c1681b933f6cb9f3376673440d862a610ad9565b610609565b6106087f427da25fe773164f88948d3e215c94b6554e2ed5e5f203a821c9f2f6131cf75a610ad9565b5b61061282610d11565b5050565b600060019054906101000a900460ff1681565b7f427da25fe773164f88948d3e215c94b6554e2ed5e5f203a821c9f2f6131cf75a61065381610ad9565b61065d6000610c1a565b6106676000610c95565b6106716000610d11565b50565b60008061067f610d8d565b90506106a883826000016000878152602001908152602001600020610db590919063ffffffff16565b91505092915050565b6000806106bc610ab1565b905080600001600085815260200190815260200160002060000160008473ffffffffffffffffffffffffffffffffffffffff1673ffffffffffffffffffffffffffffffffffffffff16815260200190815260200160002060009054906101000a900460ff1691505092915050565b6000801b81565b60008061073c610d8d565b905061075b816000016000858152602001908152602001600020610dcf565b915050919050565b600061076d610de4565b905060008160000160089054906101000a900460ff1615905060008260000160009054906101000a900467ffffffffffffffff1690506000808267ffffffffffffffff161480156107bb5750825b9050600060018367ffffffffffffffff161480156107f0575060003073ffffffffffffffffffffffffffffffffffffffff163b145b9050811580156107fe575080155b15610835576040517ff92ee8a900000000000000000000000000000000000000000000000000000000815260040160405180910390fd5b60018560000160006101000a81548167ffffffffffffffff021916908367ffffffffffffffff16021790555083156108855760018560000160086101000a81548160ff0219169083151502179055505b61088d610e0c565b61089e6000801b8760000151610aed565b506108cd7f65d7a28e3265b37a6474929f336521b332c1681b933f6cb9f3376673440d862a8760200151610aed565b506108fc7f427da25fe773164f88948d3e215c94b6554e2ed5e5f203a821c9f2f6131cf75a8760400151610aed565b5083156109595760008560000160086101000a81548160ff0219169083151502179055507fc7f505b2f371ae2175ee4913f4499e1f2633a7b5936321eed1cdaeb6115181d26001604051610950919061180a565b60405180910390a15b505050505050565b61096a82610438565b61097381610ad9565b61097d8383610b4a565b50505050565b7f65d7a28e3265b37a6474929f336521b332c1681b933f6cb9f3376673440d862a81565b7f427da25fe773164f88948d3e215c94b6554e2ed5e5f203a821c9f2f6131cf75a81565b808015610a00576109fb7f65d7a28e3265b37a6474929f336521b332c1681b933f6cb9f3376673440d862a610ad9565b610a2a565b610a297f427da25fe773164f88948d3e215c94b6554e2ed5e5f203a821c9f2f6131cf75a610ad9565b5b610a3382610c1a565b5050565b60007f7965db0b000000000000000000000000000000000000000000000000000000007bffffffffffffffffffffffffffffffffffffffffffffffffffffffff1916827bffffffffffffffffffffffffffffffffffffffffffffffffffffffff19161480610aaa5750610aa982610e16565b5b9050919050565b60007f02dd7bc7dec4dceedda775e58dd541e08a116c6c53815c0bd028192f7b626800905090565b610aea81610ae5610b42565b610e80565b50565b600080610af8610d8d565b90506000610b068585610ed1565b90508015610b3757610b3584836000016000888152602001908152602001600020610fd290919063ffffffff16565b505b809250505092915050565b600033905090565b600080610b55610d8d565b90506000610b638585611002565b90508015610b9457610b928483600001600088815260200190815260200160002061110490919063ffffffff16565b505b809250505092915050565b610bd07f65d7a28e3265b37a6474929f336521b332c1681b933f6cb9f3376673440d862a610bcb610b42565b6106b1565b610c1857610bdc610b42565b6040517f24a23b67000000000000000000000000000000000000000000000000000000008152600401610c0f919061164a565b60405180910390fd5b565b806000806101000a81548160ff02191690831515021790555080151563fcc9d86860e01b7bffffffffffffffffffffffffffffffffffffffffffffffffffffffff19167f8a3a9d8f1181b67c292c06a0fb9284581af58bc4284d19bb07bb153d65a4ee80604051610c8a90611882565b60405180910390a350565b80600060016101000a81548160ff021916908315150217905550801515636c8bcba260e01b7bffffffffffffffffffffffffffffffffffffffffffffffffffffffff19167f8a3a9d8f1181b67c292c06a0fb9284581af58bc4284d19bb07bb153d65a4ee80604051610d06906118ee565b60405180910390a350565b80600060026101000a81548160ff021916908315150217905550801515636cb85f8660e01b7bffffffffffffffffffffffffffffffffffffffffffffffffffffffff19167f8a3a9d8f1181b67c292c06a0fb9284581af58bc4284d19bb07bb153d65a4ee80604051610d829061195a565b60405180910390a350565b60007fc1f6fe24621ce81ec5827caf0253cadb74709b061630e6b55e82371705932000905090565b6000610dc48360000183611134565b60001c905092915050565b6000610ddd8260000161115f565b9050919050565b60007ff0c57e16840df040f15088dc2f81fe391c3923bec73e23a9662efc9c229c6a00905090565b610e14611170565b565b60007f01ffc9a7000000000000000000000000000000000000000000000000000000007bffffffffffffffffffffffffffffffffffffffffffffffffffffffff1916827bffffffffffffffffffffffffffffffffffffffffffffffffffffffff1916149050919050565b610e8a82826106b1565b610ecd5780826040517fe2517d3f000000000000000000000000000000000000000000000000000000008152600401610ec492919061197a565b60405180910390fd5b5050565b600080610edc610ab1565b9050610ee884846106b1565b610fc657600181600001600086815260200190815260200160002060000160008573ffffffffffffffffffffffffffffffffffffffff1673ffffffffffffffffffffffffffffffffffffffff16815260200190815260200160002060006101000a81548160ff021916908315150217905550610f62610b42565b73ffffffffffffffffffffffffffffffffffffffff168373ffffffffffffffffffffffffffffffffffffffff16857f2f8788117e7eff1d82e926ec794901d17c78024a50270940304540a733656f0d60405160405180910390a46001915050610fcc565b60009150505b92915050565b6000610ffa836000018373ffffffffffffffffffffffffffffffffffffffff1660001b6111b0565b905092915050565b60008061100d610ab1565b905061101984846106b1565b156110f857600081600001600086815260200190815260200160002060000160008573ffffffffffffffffffffffffffffffffffffffff1673ffffffffffffffffffffffffffffffffffffffff16815260200190815260200160002060006101000a81548160ff021916908315150217905550611094610b42565b73ffffffffffffffffffffffffffffffffffffffff168373ffffffffffffffffffffffffffffffffffffffff16857ff6391f5c32d9c69d2a47ea670b442974b53935d1edc7fd64eb21e047a839171b60405160405180910390a460019150506110fe565b60009150505b92915050565b600061112c836000018373ffffffffffffffffffffffffffffffffffffffff1660001b611220565b905092915050565b600082600001828154811061114c5761114b6119a3565b5b9060005260206000200154905092915050565b600081600001805490509050919050565b611178611334565b6111ae576040517fd7e6bcf800000000000000000000000000000000000000000000000000000000815260040160405180910390fd5b565b60006111bc8383611354565b61121557826000018290806001815401808255809150506001900390600052602060002001600090919091909150558260000180549050836001016000848152602001908152602001600020819055506001905061121a565b600090505b92915050565b600080836001016000848152602001908152602001600020549050600081146113285760006001826112529190611a01565b905060006001866000018054905061126a9190611a01565b90508082146112d957600086600001828154811061128b5761128a6119a3565b5b90600052602060002001549050808760000184815481106112af576112ae6119a3565b5b90600052602060002001819055508387600101600083815260200190815260200160002081905550505b856000018054806112ed576112ec611a35565b5b60019003818190600052602060002001600090559055856001016000868152602001908152602001600020600090556001935050505061132e565b60009150505b92915050565b600061133e610de4565b60000160089054906101000a900460ff16905090565b600080836001016000848152602001908152602001600020541415905092915050565b6000604051905090565b600080fd5b60007fffffffff0000000000000000000000000000000000000000000000000000000082169050919050565b6113bb81611386565b81146113c657600080fd5b50565b6000813590506113d8816113b2565b92915050565b6000602082840312156113f4576113f3611381565b5b6000611402848285016113c9565b91505092915050565b60008115159050919050565b6114208161140b565b82525050565b600060208201905061143b6000830184611417565b92915050565b6000819050919050565b61145481611441565b811461145f57600080fd5b50565b6000813590506114718161144b565b92915050565b60006020828403121561148d5761148c611381565b5b600061149b84828501611462565b91505092915050565b6114ad81611441565b82525050565b60006020820190506114c860008301846114a4565b92915050565b600073ffffffffffffffffffffffffffffffffffffffff82169050919050565b60006114f9826114ce565b9050919050565b611509816114ee565b811461151457600080fd5b50565b60008135905061152681611500565b92915050565b6000806040838503121561154357611542611381565b5b600061155185828601611462565b925050602061156285828601611517565b9150509250929050565b6115758161140b565b811461158057600080fd5b50565b6000813590506115928161156c565b92915050565b6000602082840312156115ae576115ad611381565b5b60006115bc84828501611583565b91505092915050565b6000819050919050565b6115d8816115c5565b81146115e357600080fd5b50565b6000813590506115f5816115cf565b92915050565b6000806040838503121561161257611611611381565b5b600061162085828601611462565b9250506020611631858286016115e6565b9150509250929050565b611644816114ee565b82525050565b600060208201905061165f600083018461163b565b92915050565b61166e816115c5565b82525050565b60006020820190506116896000830184611665565b92915050565b600080fd5b6000601f19601f8301169050919050565b7f4e487b7100000000000000000000000000000000000000000000000000000000600052604160045260246000fd5b6116dd82611694565b810181811067ffffffffffffffff821117156116fc576116fb6116a5565b5b80604052505050565b600061170f611377565b905061171b82826116d4565b919050565b6000606082840312156117365761173561168f565b5b6117406060611705565b9050600061175084828501611517565b600083015250602061176484828501611517565b602083015250604061177884828501611517565b60408301525092915050565b60006060828403121561179a57611799611381565b5b60006117a884828501611720565b91505092915050565b6000819050919050565b600067ffffffffffffffff82169050919050565b6000819050919050565b60006117f46117ef6117ea846117b1565b6117cf565b6117bb565b9050919050565b611804816117d9565b82525050565b600060208201905061181f60008301846117fb565b92915050565b600082825260208201905092915050565b7f73657449735374616b696e675061757365640000000000000000000000000000600082015250565b600061186c601283611825565b915061187782611836565b602082019050919050565b6000602082019050818103600083015261189b8161185f565b9050919050565b7f7365744973416c6c6f636174696f6e5061757365640000000000000000000000600082015250565b60006118d8601583611825565b91506118e3826118a2565b602082019050919050565b60006020820190508181036000830152611907816118cb565b9050919050565b7f7365744973436c61696d50617573656400000000000000000000000000000000600082015250565b6000611944601083611825565b915061194f8261190e565b602082019050919050565b6000602082019050818103600083015261197381611937565b9050919050565b600060408201905061198f600083018561163b565b61199c60208301846114a4565b9392505050565b7f4e487b7100000000000000000000000000000000000000000000000000000000600052603260045260246000fd5b7f4e487b7100000000000000000000000000000000000000000000000000000000600052601160045260246000fd5b6000611a0c826115c5565b9150611a17836115c5565b9250828203905081811115611a2f57611a2e6119d2565b5b92915050565b7f4e487b7100000000000000000000000000000000000000000000000000000000600052603160045260246000fdfea26469706673582212206641eca84b6a666211c829c05f4eb548f773f09235d613b52e717a09551db41c64736f6c63430008140033",
  "linkReferences": {},
  "deployedLinkReferences": {}
}