{
  "_format": "hh-sol-artifact-1",
  "contractName": "StakingERC20",
  "sourceName": "contracts/StakingERC20.sol",
  "abi": [
    {
      "inputs": [],
      "stateMutability": "nonpayable",
      "type": "constructor"
    },
    {
      "inputs": [],
      "name": "AccessControlBadConfirmation",
      "type": "error"
    },
    {
      "inputs": [
        {
          "internalType": "address",
          "name": "account",
          "type": "address"
        },
        {
          "internalType": "bytes32",
          "name": "neededRole",
          "type": "bytes32"
        }
      ],
      "name": "AccessControlUnauthorizedAccount",
      "type": "error"
    },
    {
      "inputs": [
        {
          "internalType": "address",
          "name": "target",
          "type": "address"
        }
      ],
      "name": "AddressEmptyCode",
      "type": "error"
    },
    {
      "inputs": [
        {
          "internalType": "address",
          "name": "account",
          "type": "address"
        }
      ],
      "name": "AddressInsufficientBalance",
      "type": "error"
    },
    {
      "inputs": [],
      "name": "AddressZeroNotExpected",
      "type": "error"
    },
    {
      "inputs": [],
      "name": "Cooldown",
      "type": "error"
    },
    {
      "inputs": [
        {
          "internalType": "address",
          "name": "receiver",
          "type": "address"
        },
        {
          "internalType": "uint256",
          "name": "amount",
          "type": "uint256"
        },
        {
          "internalType": "uint256",
          "name": "minStake",
          "type": "uint256"
        }
      ],
      "name": "DepositAmountTooSmall",
      "type": "error"
    },
    {
      "inputs": [],
      "name": "DepositOverBond",
      "type": "error"
    },
    {
      "inputs": [],
      "name": "DurationNotExpected",
      "type": "error"
    },
    {
      "inputs": [
        {
          "internalType": "bytes32",
          "name": "key",
          "type": "bytes32"
        }
      ],
      "name": "EnumerableMapNonexistentKey",
      "type": "error"
    },
    {
      "inputs": [
        {
          "internalType": "address",
          "name": "receiver",
          "type": "address"
        },
        {
          "internalType": "uint256",
          "name": "assets",
          "type": "uint256"
        },
        {
          "internalType": "uint256",
          "name": "max",
          "type": "uint256"
        }
      ],
      "name": "ExceededMaxDeposit",
      "type": "error"
    },
    {
      "inputs": [
        {
          "internalType": "address",
          "name": "owner",
          "type": "address"
        },
        {
          "internalType": "uint256",
          "name": "assets",
          "type": "uint256"
        },
        {
          "internalType": "uint256",
          "name": "max",
          "type": "uint256"
        }
      ],
      "name": "ExceededMaxWithdraw",
      "type": "error"
    },
    {
      "inputs": [
        {
          "internalType": "address",
          "name": "owner",
          "type": "address"
        },
        {
          "internalType": "uint256",
          "name": "assets",
          "type": "uint256"
        },
        {
          "internalType": "uint256",
          "name": "max",
          "type": "uint256"
        }
      ],
      "name": "ExceededWithdrawal",
      "type": "error"
    },
    {
      "inputs": [],
      "name": "FailedInnerCall",
      "type": "error"
    },
    {
      "inputs": [],
      "name": "InsufficientWithdrawableBalance",
      "type": "error"
    },
    {
      "inputs": [],
      "name": "InvalidInitialization",
      "type": "error"
    },
    {
      "inputs": [],
      "name": "NotInitializing",
      "type": "error"
    },
    {
      "inputs": [],
      "name": "Paused",
      "type": "error"
    },
    {
      "inputs": [],
      "name": "ReentrancyGuardReentrantCall",
      "type": "error"
    },
    {
      "inputs": [
        {
          "internalType": "address",
          "name": "token",
          "type": "address"
        }
      ],
      "name": "SafeERC20FailedOperation",
      "type": "error"
    },
    {
      "anonymous": false,
      "inputs": [
        {
          "indexed": true,
          "internalType": "address",
          "name": "sender",
          "type": "address"
        },
        {
          "indexed": false,
          "internalType": "uint256",
          "name": "assets",
          "type": "uint256"
        }
      ],
      "name": "Deposit",
      "type": "event"
    },
    {
      "anonymous": false,
      "inputs": [
        {
          "indexed": true,
          "internalType": "address",
          "name": "owner",
          "type": "address"
        },
        {
          "indexed": false,
          "internalType": "uint256",
          "name": "lockStart",
          "type": "uint256"
        },
        {
          "indexed": false,
          "internalType": "uint256",
          "name": "amount",
          "type": "uint256"
        },
        {
          "indexed": false,
          "internalType": "uint256",
          "name": "duration",
          "type": "uint256"
        }
      ],
      "name": "DepositWithDuration",
      "type": "event"
    },
    {
      "anonymous": false,
      "inputs": [
        {
          "indexed": false,
          "internalType": "uint64",
          "name": "version",
          "type": "uint64"
        }
      ],
      "name": "Initialized",
      "type": "event"
    },
    {
      "anonymous": false,
      "inputs": [
        {
          "indexed": true,
          "internalType": "bytes4",
          "name": "setterSelector",
          "type": "bytes4"
        },
        {
          "indexed": false,
          "internalType": "string",
          "name": "setterSignature",
          "type": "string"
        },
        {
          "indexed": false,
          "internalType": "bytes",
          "name": "value",
          "type": "bytes"
        }
      ],
      "name": "ProtocolConfigChanged",
      "type": "event"
    },
    {
      "anonymous": false,
      "inputs": [
        {
          "indexed": true,
          "internalType": "bytes32",
          "name": "role",
          "type": "bytes32"
        },
        {
          "indexed": true,
          "internalType": "bytes32",
          "name": "previousAdminRole",
          "type": "bytes32"
        },
        {
          "indexed": true,
          "internalType": "bytes32",
          "name": "newAdminRole",
          "type": "bytes32"
        }
      ],
      "name": "RoleAdminChanged",
      "type": "event"
    },
    {
      "anonymous": false,
      "inputs": [
        {
          "indexed": true,
          "internalType": "bytes32",
          "name": "role",
          "type": "bytes32"
        },
        {
          "indexed": true,
          "internalType": "address",
          "name": "account",
          "type": "address"
        },
        {
          "indexed": true,
          "internalType": "address",
          "name": "sender",
          "type": "address"
        }
      ],
      "name": "RoleGranted",
      "type": "event"
    },
    {
      "anonymous": false,
      "inputs": [
        {
          "indexed": true,
          "internalType": "bytes32",
          "name": "role",
          "type": "bytes32"
        },
        {
          "indexed": true,
          "internalType": "address",
          "name": "account",
          "type": "address"
        },
        {
          "indexed": true,
          "internalType": "address",
          "name": "sender",
          "type": "address"
        }
      ],
      "name": "RoleRevoked",
      "type": "event"
    },
    {
      "anonymous": false,
      "inputs": [
        {
          "indexed": true,
          "internalType": "address",
          "name": "owner",
          "type": "address"
        },
        {
          "indexed": false,
          "internalType": "uint256",
          "name": "lockedAmount",
          "type": "uint256"
        }
      ],
      "name": "UserLockUpdated",
      "type": "event"
    },
    {
      "anonymous": false,
      "inputs": [
        {
          "indexed": true,
          "internalType": "address",
          "name": "owner",
          "type": "address"
        },
        {
          "indexed": false,
          "internalType": "uint256",
          "name": "requestUnlock",
          "type": "uint256"
        },
        {
          "indexed": false,
          "internalType": "uint256",
          "name": "unlockAmount",
          "type": "uint256"
        }
      ],
      "name": "UserUnlocked",
      "type": "event"
    },
    {
      "anonymous": false,
      "inputs": [
        {
          "indexed": true,
          "internalType": "address",
          "name": "sender",
          "type": "address"
        },
        {
          "indexed": true,
          "internalType": "address",
          "name": "receiver",
          "type": "address"
        },
        {
          "indexed": false,
          "internalType": "uint256",
          "name": "assets",
          "type": "uint256"
        }
      ],
      "name": "Withdraw",
      "type": "event"
    },
    {
      "stateMutability": "payable",
      "type": "fallback"
    },
    {
      "inputs": [],
      "name": "DEFAULT_ADMIN_ROLE",
      "outputs": [
        {
          "internalType": "bytes32",
          "name": "",
          "type": "bytes32"
        }
      ],
      "stateMutability": "view",
      "type": "function"
    },
    {
      "inputs": [],
      "name": "STAKING_OPERATOR_ROLE",
      "outputs": [
        {
          "internalType": "bytes32",
          "name": "",
          "type": "bytes32"
        }
      ],
      "stateMutability": "view",
      "type": "function"
    },
    {
      "inputs": [
        {
          "internalType": "uint256",
          "name": "duration",
          "type": "uint256"
        }
      ],
      "name": "addLockDuration",
      "outputs": [
        {
          "internalType": "bool",
          "name": "",
          "type": "bool"
        }
      ],
      "stateMutability": "nonpayable",
      "type": "function"
    },
    {
      "inputs": [],
      "name": "allocator",
      "outputs": [
        {
          "internalType": "address",
          "name": "",
          "type": "address"
        }
      ],
      "stateMutability": "view",
      "type": "function"
    },
    {
      "inputs": [],
      "name": "asset",
      "outputs": [
        {
          "internalType": "address",
          "name": "",
          "type": "address"
        }
      ],
      "stateMutability": "view",
      "type": "function"
    },
    {
      "inputs": [],
      "name": "cooldown",
      "outputs": [
        {
          "internalType": "uint256",
          "name": "",
          "type": "uint256"
        }
      ],
      "stateMutability": "view",
      "type": "function"
    },
    {
      "inputs": [
        {
          "internalType": "uint256",
          "name": "",
          "type": "uint256"
        }
      ],
      "name": "deposit",
      "outputs": [
        {
          "internalType": "uint256",
          "name": "",
          "type": "uint256"
        }
      ],
      "stateMutability": "payable",
      "type": "function"
    },
    {
      "inputs": [
        {
          "internalType": "uint256",
          "name": "assets",
          "type": "uint256"
        },
        {
          "internalType": "uint256",
          "name": "duration",
          "type": "uint256"
        }
      ],
      "name": "deposit",
      "outputs": [
        {
          "internalType": "uint256",
          "name": "",
          "type": "uint256"
        }
      ],
      "stateMutability": "nonpayable",
      "type": "function"
    },
    {
      "inputs": [
        {
          "internalType": "address",
          "name": "account",
          "type": "address"
        }
      ],
      "name": "deposited",
      "outputs": [
        {
          "internalType": "uint256",
          "name": "",
          "type": "uint256"
        }
      ],
      "stateMutability": "view",
      "type": "function"
    },
    {
      "inputs": [],
      "name": "durations",
      "outputs": [
        {
          "internalType": "uint256[]",
          "name": "",
          "type": "uint256[]"
        }
      ],
      "stateMutability": "view",
      "type": "function"
    },
    {
      "inputs": [
        {
          "internalType": "bytes32",
          "name": "role",
          "type": "bytes32"
        }
      ],
      "name": "getRoleAdmin",
      "outputs": [
        {
          "internalType": "bytes32",
          "name": "",
          "type": "bytes32"
        }
      ],
      "stateMutability": "view",
      "type": "function"
    },
    {
      "inputs": [
        {
          "internalType": "bytes32",
          "name": "role",
          "type": "bytes32"
        },
        {
          "internalType": "uint256",
          "name": "index",
          "type": "uint256"
        }
      ],
      "name": "getRoleMember",
      "outputs": [
        {
          "internalType": "address",
          "name": "",
          "type": "address"
        }
      ],
      "stateMutability": "view",
      "type": "function"
    },
    {
      "inputs": [
        {
          "internalType": "bytes32",
          "name": "role",
          "type": "bytes32"
        }
      ],
      "name": "getRoleMemberCount",
      "outputs": [
        {
          "internalType": "uint256",
          "name": "",
          "type": "uint256"
        }
      ],
      "stateMutability": "view",
      "type": "function"
    },
    {
      "inputs": [
        {
          "internalType": "address",
          "name": "owner",
          "type": "address"
        }
      ],
      "name": "getUserLockUpArrays",
      "outputs": [
        {
          "internalType": "uint256[]",
          "name": "",
          "type": "uint256[]"
        },
        {
          "internalType": "uint256[]",
          "name": "",
          "type": "uint256[]"
        },
        {
          "internalType": "uint256[]",
          "name": "",
          "type": "uint256[]"
        }
      ],
      "stateMutability": "view",
      "type": "function"
    },
    {
      "inputs": [
        {
          "internalType": "address",
          "name": "owner",
          "type": "address"
        }
      ],
      "name": "getUserLockUps",
      "outputs": [
        {
          "internalType": "uint256",
          "name": "",
          "type": "uint256"
        }
      ],
      "stateMutability": "view",
      "type": "function"
    },
    {
      "inputs": [
        {
          "internalType": "bytes32",
          "name": "role",
          "type": "bytes32"
        },
        {
          "internalType": "address",
          "name": "account",
          "type": "address"
        }
      ],
      "name": "grantRole",
      "outputs": [],
      "stateMutability": "nonpayable",
      "type": "function"
    },
    {
      "inputs": [
        {
          "internalType": "bytes32",
          "name": "role",
          "type": "bytes32"
        },
        {
          "internalType": "address",
          "name": "account",
          "type": "address"
        }
      ],
      "name": "hasRole",
      "outputs": [
        {
          "internalType": "bool",
          "name": "",
          "type": "bool"
        }
      ],
      "stateMutability": "view",
      "type": "function"
    },
    {
      "inputs": [
        {
          "components": [
            {
              "internalType": "address",
              "name": "admin",
              "type": "address"
            },
            {
              "internalType": "address",
              "name": "operator",
              "type": "address"
            },
            {
              "internalType": "address",
              "name": "pauser",
              "type": "address"
            },
            {
              "internalType": "address",
              "name": "asset",
              "type": "address"
            },
            {
              "internalType": "uint256",
              "name": "cooldown",
              "type": "uint256"
            },
            {
              "internalType": "uint256",
              "name": "minStake",
              "type": "uint256"
            },
            {
              "internalType": "uint256",
              "name": "maxStakeSupply",
              "type": "uint256"
            },
            {
              "internalType": "address",
              "name": "allocator",
              "type": "address"
            }
          ],
          "internalType": "struct StakingERC20.Init",
          "name": "init",
          "type": "tuple"
        }
      ],
      "name": "initialize",
      "outputs": [],
      "stateMutability": "nonpayable",
      "type": "function"
    },
    {
      "inputs": [
        {
          "internalType": "address",
          "name": "",
          "type": "address"
        }
      ],
      "name": "maxDeposit",
      "outputs": [
        {
          "internalType": "uint256",
          "name": "",
          "type": "uint256"
        }
      ],
      "stateMutability": "view",
      "type": "function"
    },
    {
      "inputs": [],
      "name": "maxStakeSupply",
      "outputs": [
        {
          "internalType": "uint256",
          "name": "",
          "type": "uint256"
        }
      ],
      "stateMutability": "view",
      "type": "function"
    },
    {
      "inputs": [
        {
          "internalType": "address",
          "name": "owner",
          "type": "address"
        }
      ],
      "name": "maxWithdraw",
      "outputs": [
        {
          "internalType": "uint256",
          "name": "",
          "type": "uint256"
        }
      ],
      "stateMutability": "view",
      "type": "function"
    },
    {
      "inputs": [],
      "name": "minStake",
      "outputs": [
        {
          "internalType": "uint256",
          "name": "",
          "type": "uint256"
        }
      ],
      "stateMutability": "view",
      "type": "function"
    },
    {
      "inputs": [],
      "name": "pauser",
      "outputs": [
        {
          "internalType": "contract IPauser",
          "name": "",
          "type": "address"
        }
      ],
      "stateMutability": "view",
      "type": "function"
    },
    {
      "inputs": [
        {
          "internalType": "uint256",
          "name": "duration",
          "type": "uint256"
        }
      ],
      "name": "removeLockDuration",
      "outputs": [
        {
          "internalType": "bool",
          "name": "",
          "type": "bool"
        }
      ],
      "stateMutability": "nonpayable",
      "type": "function"
    },
    {
      "inputs": [
        {
          "internalType": "bytes32",
          "name": "role",
          "type": "bytes32"
        },
        {
          "internalType": "address",
          "name": "callerConfirmation",
          "type": "address"
        }
      ],
      "name": "renounceRole",
      "outputs": [],
      "stateMutability": "nonpayable",
      "type": "function"
    },
    {
      "inputs": [
        {
          "internalType": "bytes32",
          "name": "role",
          "type": "bytes32"
        },
        {
          "internalType": "address",
          "name": "account",
          "type": "address"
        }
      ],
      "name": "revokeRole",
      "outputs": [],
      "stateMutability": "nonpayable",
      "type": "function"
    },
    {
      "inputs": [
        {
          "internalType": "uint256",
          "name": "newCooldown",
          "type": "uint256"
        }
      ],
      "name": "setCooldown",
      "outputs": [],
      "stateMutability": "nonpayable",
      "type": "function"
    },
    {
      "inputs": [
        {
          "internalType": "uint256",
          "name": "newMaxStakeSupply",
          "type": "uint256"
        }
      ],
      "name": "setMaxStakeSupply",
      "outputs": [],
      "stateMutability": "nonpayable",
      "type": "function"
    },
    {
      "inputs": [
        {
          "internalType": "uint256",
          "name": "newMinStake",
          "type": "uint256"
        }
      ],
      "name": "setMinStake",
      "outputs": [],
      "stateMutability": "nonpayable",
      "type": "function"
    },
    {
      "inputs": [
        {
          "internalType": "bytes4",
          "name": "interfaceId",
          "type": "bytes4"
        }
      ],
      "name": "supportsInterface",
      "outputs": [
        {
          "internalType": "bool",
          "name": "",
          "type": "bool"
        }
      ],
      "stateMutability": "view",
      "type": "function"
    },
    {
      "inputs": [],
      "name": "totalDeposit",
      "outputs": [
        {
          "internalType": "uint256",
          "name": "",
          "type": "uint256"
        }
      ],
      "stateMutability": "view",
      "type": "function"
    },
    {
      "inputs": [],
      "name": "totalParticipants",
      "outputs": [
        {
          "internalType": "uint256",
          "name": "",
          "type": "uint256"
        }
      ],
      "stateMutability": "view",
      "type": "function"
    },
    {
      "inputs": [
        {
          "internalType": "address[]",
          "name": "users",
          "type": "address[]"
        },
        {
          "internalType": "uint256[]",
          "name": "amounts",
          "type": "uint256[]"
        }
      ],
      "name": "unlockLockups",
      "outputs": [],
      "stateMutability": "nonpayable",
      "type": "function"
    },
    {
      "inputs": [
        {
          "internalType": "address",
          "name": "owner",
          "type": "address"
        }
      ],
      "name": "updateLockUps",
      "outputs": [],
      "stateMutability": "nonpayable",
      "type": "function"
    },
    {
      "inputs": [
        {
          "internalType": "address",
          "name": "depositor",
          "type": "address"
        }
      ],
      "name": "userStakeCooldown",
      "outputs": [
        {
          "internalType": "bool",
          "name": "",
          "type": "bool"
        },
        {
          "internalType": "uint256",
          "name": "",
          "type": "uint256"
        }
      ],
      "stateMutability": "view",
      "type": "function"
    },
    {
      "inputs": [
        {
          "internalType": "uint256",
          "name": "assets",
          "type": "uint256"
        },
        {
          "internalType": "address",
          "name": "receiver",
          "type": "address"
        }
      ],
      "name": "withdraw",
      "outputs": [
        {
          "internalType": "uint256",
          "name": "",
          "type": "uint256"
        }
      ],
      "stateMutability": "nonpayable",
      "type": "function"
    },
    {
      "stateMutability": "payable",
      "type": "receive"
    }
  ],
  "bytecode": "0x60806040523480156200001157600080fd5b50620000226200002860201b60201c565b6200019c565b60006200003a6200013260201b60201c565b90508060000160089054906101000a900460ff161562000086576040517ff92ee8a900000000000000000000000000000000000000000000000000000000815260040160405180910390fd5b67ffffffffffffffff80168160000160009054906101000a900467ffffffffffffffff1667ffffffffffffffff16146200012f5767ffffffffffffffff8160000160006101000a81548167ffffffffffffffff021916908367ffffffffffffffff1602179055507fc7f505b2f371ae2175ee4913f4499e1f2633a7b5936321eed1cdaeb6115181d267ffffffffffffffff6040516200012691906200017f565b60405180910390a15b50565b60007ff0c57e16840df040f15088dc2f81fe391c3923bec73e23a9662efc9c229c6a00905090565b600067ffffffffffffffff82169050919050565b62000179816200015a565b82525050565b60006020820190506200019660008301846200016e565b92915050565b61538280620001ac6000396000f3fe6080604052600436106102125760003560e01c806391d1485411610118578063c64db12e116100a0578063d547741f1161006f578063d547741f146108a6578063e2bbb158146108cf578063eca197361461090c578063ef9beeee14610935578063f6153ccd1461097257610252565b8063c64db12e146107c6578063ca15c873146107ef578063cb13cddb1461082c578063ce96cb771461086957610252565b8063a217fddf116100e7578063a217fddf146106ec578063a26dbf2614610717578063aa5dcecc14610742578063b6b55f251461076d578063ba61ecae1461079d57610252565b806391d148541461061b57806397e3b7f4146106585780639fd0506d14610683578063a0edb2df146106ae57610252565b8063402d267d1161019b57806374e71acb1161016a57806374e71acb14610522578063787a08a61461054d5780638c80fd90146105785780639010d07c146105a15780639163b7eb146105de57610252565b8063402d267d146104525780634a41d89d1461048f5780634fc3f41a146104ba5780635f019d51146104e357610252565b8063248a9ca3116101e2578063248a9ca31461036d5780632f2ff15d146103aa57806336568abe146103d3578063375b3c0a146103fc57806338d52e0f1461042757610252565b8062f714ce1461028d57806301ffc9a7146102ca5780630689ef2814610307578063242210161461034457610252565b36610252576040517f08c379a0000000000000000000000000000000000000000000000000000000008152600401610249906142c9565b60405180910390fd5b6040517f08c379a0000000000000000000000000000000000000000000000000000000008152600401610284906142c9565b60405180910390fd5b34801561029957600080fd5b506102b460048036038101906102af9190614391565b61099d565b6040516102c191906143e0565b60405180910390f35b3480156102d657600080fd5b506102f160048036038101906102ec9190614453565b610be1565b6040516102fe919061449b565b60405180910390f35b34801561031357600080fd5b5061032e600480360381019061032991906144b6565b610c5b565b60405161033b91906143e0565b60405180910390f35b34801561035057600080fd5b5061036b600480360381019061036691906144e3565b610eb7565b005b34801561037957600080fd5b50610394600480360381019061038f9190614546565b610f69565b6040516103a19190614582565b60405180910390f35b3480156103b657600080fd5b506103d160048036038101906103cc919061459d565b610f97565b005b3480156103df57600080fd5b506103fa60048036038101906103f5919061459d565b610fb9565b005b34801561040857600080fd5b50610411611034565b60405161041e91906143e0565b60405180910390f35b34801561043357600080fd5b5061043c61103a565b60405161044991906145ec565b60405180910390f35b34801561045e57600080fd5b50610479600480360381019061047491906144b6565b611072565b60405161048691906143e0565b60405180910390f35b34801561049b57600080fd5b506104a461109c565b6040516104b191906146c5565b60405180910390f35b3480156104c657600080fd5b506104e160048036038101906104dc91906144e3565b6110ad565b005b3480156104ef57600080fd5b5061050a600480360381019061050591906144b6565b61115f565b604051610519939291906146e7565b60405180910390f35b34801561052e57600080fd5b50610537611340565b60405161054491906143e0565b60405180910390f35b34801561055957600080fd5b50610562611346565b60405161056f91906143e0565b60405180910390f35b34801561058457600080fd5b5061059f600480360381019061059a91906144e3565b61134c565b005b3480156105ad57600080fd5b506105c860048036038101906105c39190614733565b6113fe565b6040516105d591906145ec565b60405180910390f35b3480156105ea57600080fd5b50610605600480360381019061060091906144e3565b61143b565b604051610612919061449b565b60405180910390f35b34801561062757600080fd5b50610642600480360381019061063d919061459d565b6114f5565b60405161064f919061449b565b60405180910390f35b34801561066457600080fd5b5061066d61156e565b60405161067a9190614582565b60405180910390f35b34801561068f57600080fd5b50610698611592565b6040516106a591906147d2565b60405180910390f35b3480156106ba57600080fd5b506106d560048036038101906106d091906144b6565b6115b8565b6040516106e39291906147ed565b60405180910390f35b3480156106f857600080fd5b50610701611791565b60405161070e9190614582565b60405180910390f35b34801561072357600080fd5b5061072c611798565b60405161073991906143e0565b60405180910390f35b34801561074e57600080fd5b506107576117b7565b60405161076491906145ec565b60405180910390f35b610787600480360381019061078291906144e3565b6117dd565b60405161079491906143e0565b60405180910390f35b3480156107a957600080fd5b506107c460048036038101906107bf9190614a32565b611822565b005b3480156107d257600080fd5b506107ed60048036038101906107e891906144b6565b611964565b005b3480156107fb57600080fd5b5061081660048036038101906108119190614546565b6119de565b60405161082391906143e0565b60405180910390f35b34801561083857600080fd5b50610853600480360381019061084e91906144b6565b611a10565b60405161086091906143e0565b60405180910390f35b34801561087557600080fd5b50610890600480360381019061088b91906144b6565b611a42565b60405161089d91906143e0565b60405180910390f35b3480156108b257600080fd5b506108cd60048036038101906108c8919061459d565b611a74565b005b3480156108db57600080fd5b506108f660048036038101906108f19190614aaa565b611a96565b60405161090391906143e0565b60405180910390f35b34801561091857600080fd5b50610933600480360381019061092e9190614b0f565b611d98565b005b34801561094157600080fd5b5061095c600480360381019061095791906144e3565b6120db565b604051610969919061449b565b60405180910390f35b34801561097e57600080fd5b50610987612195565b60405161099491906143e0565b60405180910390f35b60006109a76121ad565b60003073ffffffffffffffffffffffffffffffffffffffff1663a0edb2df6109cd612204565b6040518263ffffffff1660e01b81526004016109e991906145ec565b6040805180830381865afa158015610a05573d6000803e3d6000fd5b505050506040513d601f19601f82011682018060405250810190610a299190614b7e565b5090508015610a64576040517fb0782df700000000000000000000000000000000000000000000000000000000815260040160405180910390fd5b600360009054906101000a900473ffffffffffffffffffffffffffffffffffffffff1673ffffffffffffffffffffffffffffffffffffffff16631ea7ca896040518163ffffffff1660e01b8152600401602060405180830381865afa158015610ad1573d6000803e3d6000fd5b505050506040513d601f19601f82011682018060405250810190610af59190614bbe565b15610b2c576040517f9e87fac800000000000000000000000000000000000000000000000000000000815260040160405180910390fd5b610b3c610b37612204565b61220c565b6000610b466128f5565b90506000610b67610b55612204565b8360000161291d90919063ffffffff16565b9150506000610b7c610b77612204565b611a10565b9050868282610b8b9190614c1a565b1015610bc3576040517f0b1bd51c00000000000000000000000000000000000000000000000000000000815260040160405180910390fd5b610bcd878761295f565b945050505050610bdb612a60565b92915050565b60007f5a05180f000000000000000000000000000000000000000000000000000000007bffffffffffffffffffffffffffffffffffffffffffffffffffffffff1916827bffffffffffffffffffffffffffffffffffffffffffffffffffffffff19161480610c545750610c5382612a79565b5b9050919050565b600080610c666128f5565b90506000610c80848360000161291d90919063ffffffff16565b91505060008260030160008673ffffffffffffffffffffffffffffffffffffffff1673ffffffffffffffffffffffffffffffffffffffff1681526020019081526020016000206001018054905003610cdd57600092505050610eb2565b60008260030160008673ffffffffffffffffffffffffffffffffffffffff1673ffffffffffffffffffffffffffffffffffffffff1681526020019081526020016000206001018054905090505b6000811115610eab57428360030160008773ffffffffffffffffffffffffffffffffffffffff1673ffffffffffffffffffffffffffffffffffffffff168152602001908152602001600020600201600183610d859190614c1a565b81548110610d9657610d95614c4e565b5b90600052602060002001548460030160008873ffffffffffffffffffffffffffffffffffffffff1673ffffffffffffffffffffffffffffffffffffffff168152602001908152602001600020600001600184610df29190614c1a565b81548110610e0357610e02614c4e565b5b9060005260206000200154610e189190614c7d565b11610e98578260030160008673ffffffffffffffffffffffffffffffffffffffff1673ffffffffffffffffffffffffffffffffffffffff168152602001908152602001600020600101600182610e6e9190614c1a565b81548110610e7f57610e7e614c4e565b5b906000526020600020015482610e959190614c1a565b91505b8080610ea390614cb1565b915050610d2a565b5080925050505b919050565b7f695baaec64dcea9b360cf4afad33a0f77fe653c0db7609569fc416ae7343b5fb610ee181612af3565b81600781905550632422101660e01b7bffffffffffffffffffffffffffffffffffffffffffffffffffffffff19167f01d854e8dde9402801a4c6f2840193465752abfad61e0bb7c4258d526ae42e7483604051602001610f4191906143e0565b604051602081830303815290604052604051610f5d9190614da5565b60405180910390a25050565b600080610f74612b07565b905080600001600084815260200190815260200160002060010154915050919050565b610fa082610f69565b610fa981612af3565b610fb38383612b2f565b50505050565b610fc1612204565b73ffffffffffffffffffffffffffffffffffffffff168173ffffffffffffffffffffffffffffffffffffffff1614611025576040517f6697b23200000000000000000000000000000000000000000000000000000000815260040160405180910390fd5b61102f8282612b84565b505050565b60065481565b600080611045612bd9565b90508060040160009054906101000a900473ffffffffffffffffffffffffffffffffffffffff1691505090565b60007fffffffffffffffffffffffffffffffffffffffffffffffffffffffffffffffff9050919050565b60606110a86000612c01565b905090565b7f695baaec64dcea9b360cf4afad33a0f77fe653c0db7609569fc416ae7343b5fb6110d781612af3565b81600581905550634fc3f41a60e01b7bffffffffffffffffffffffffffffffffffffffffffffffffffffffff19167f01d854e8dde9402801a4c6f2840193465752abfad61e0bb7c4258d526ae42e748360405160200161113791906143e0565b6040516020818303038152906040526040516111539190614e26565b60405180910390a25050565b6060806060600061116e6128f5565b90508060030160008673ffffffffffffffffffffffffffffffffffffffff1673ffffffffffffffffffffffffffffffffffffffff1681526020019081526020016000206000018160030160008773ffffffffffffffffffffffffffffffffffffffff1673ffffffffffffffffffffffffffffffffffffffff1681526020019081526020016000206001018260030160008873ffffffffffffffffffffffffffffffffffffffff1673ffffffffffffffffffffffffffffffffffffffff1681526020019081526020016000206002018280548060200260200160405190810160405280929190818152602001828054801561128757602002820191906000526020600020905b815481526020019060010190808311611273575b50505050509250818054806020026020016040519081016040528092919081815260200182805480156112d957602002820191906000526020600020905b8154815260200190600101908083116112c5575b505050505091508080548060200260200160405190810160405280929190818152602001828054801561132b57602002820191906000526020600020905b815481526020019060010190808311611317575b50505050509050935093509350509193909250565b60075481565b60055481565b7f695baaec64dcea9b360cf4afad33a0f77fe653c0db7609569fc416ae7343b5fb61137681612af3565b81600681905550638c80fd9060e01b7bffffffffffffffffffffffffffffffffffffffffffffffffffffffff19167f01d854e8dde9402801a4c6f2840193465752abfad61e0bb7c4258d526ae42e74836040516020016113d691906143e0565b6040516020818303038152906040526040516113f29190614ea7565b60405180910390a25050565b600080611409612c22565b905061143283826000016000878152602001908152602001600020612c4a90919063ffffffff16565b91505092915050565b60007f695baaec64dcea9b360cf4afad33a0f77fe653c0db7609569fc416ae7343b5fb61146781612af3565b639163b7eb60e01b7bffffffffffffffffffffffffffffffffffffffffffffffffffffffff19167f01d854e8dde9402801a4c6f2840193465752abfad61e0bb7c4258d526ae42e74846040516020016114c091906143e0565b6040516020818303038152906040526040516114dc9190614f28565b60405180910390a26114ed83612c64565b915050919050565b600080611500612b07565b905080600001600085815260200190815260200160002060000160008473ffffffffffffffffffffffffffffffffffffffff1673ffffffffffffffffffffffffffffffffffffffff16815260200190815260200160002060009054906101000a900460ff1691505092915050565b7f695baaec64dcea9b360cf4afad33a0f77fe653c0db7609569fc416ae7343b5fb81565b600360009054906101000a900473ffffffffffffffffffffffffffffffffffffffff1681565b600080600073ffffffffffffffffffffffffffffffffffffffff168373ffffffffffffffffffffffffffffffffffffffff1603611621576040517fa4377c6200000000000000000000000000000000000000000000000000000000815260040160405180910390fd5b6000600260008573ffffffffffffffffffffffffffffffffffffffff1673ffffffffffffffffffffffffffffffffffffffff1681526020019081526020016000205403611674576000809150915061178c565b600260008473ffffffffffffffffffffffffffffffffffffffff1673ffffffffffffffffffffffffffffffffffffffff168152602001908152602001600020544210156116c857600160009150915061178c565b600554600260008573ffffffffffffffffffffffffffffffffffffffff1673ffffffffffffffffffffffffffffffffffffffff168152602001908152602001600020546117159190614c7d565b4210611727576000809150915061178c565b6000600260008573ffffffffffffffffffffffffffffffffffffffff1673ffffffffffffffffffffffffffffffffffffffff16815260200190815260200160002054426117749190614c1a565b6005546117819190614c1a565b905060018192509250505b915091565b6000801b81565b6000806117a3612bd9565b90506117b181600101612c81565b91505090565b600460009054906101000a900473ffffffffffffffffffffffffffffffffffffffff1681565b60006117e76121ad565b6040517f08c379a0000000000000000000000000000000000000000000000000000000008152600401611819906142c9565b60405180910390fd5b7f695baaec64dcea9b360cf4afad33a0f77fe653c0db7609569fc416ae7343b5fb61184c81612af3565b8151835114611890576040517f08c379a000000000000000000000000000000000000000000000000000000000815260040161188790614fa9565b60405180910390fd5b6000805b845181101561195d576118c08582815181106118b3576118b2614c4e565b5b602002602001015161220c565b60006118e58683815181106118d8576118d7614c4e565b5b6020026020010151610c5b565b90508482815181106118fa576118f9614c4e565b5b602002602001015181106119495761194686838151811061191e5761191d614c4e565b5b602002602001015186848151811061193957611938614c4e565b5b6020026020010151612c96565b92505b50808061195590614fc9565b915050611894565b5050505050565b3073ffffffffffffffffffffffffffffffffffffffff163373ffffffffffffffffffffffffffffffffffffffff16146119d2576040517f08c379a00000000000000000000000000000000000000000000000000000000081526004016119c99061505d565b60405180910390fd5b6119db8161220c565b50565b6000806119e9612c22565b9050611a088160000160008581526020019081526020016000206130fd565b915050919050565b600080611a1b612bd9565b90506000611a35848360010161291d90919063ffffffff16565b9150508092505050919050565b600080611a4d612bd9565b90506000611a67848360010161291d90919063ffffffff16565b9150508092505050919050565b611a7d82610f69565b611a8681612af3565b611a908383612b84565b50505050565b6000611aa06121ad565b600360009054906101000a900473ffffffffffffffffffffffffffffffffffffffff1673ffffffffffffffffffffffffffffffffffffffff16631ea7ca896040518163ffffffff1660e01b8152600401602060405180830381865afa158015611b0d573d6000803e3d6000fd5b505050506040513d601f19601f82011682018060405250810190611b319190614bbe565b15611b68576040517f9e87fac800000000000000000000000000000000000000000000000000000000815260040160405180910390fd5b6000611b7a611b75612204565b611072565b905080841115611bcc57611b8c612204565b84826040517f88db76aa000000000000000000000000000000000000000000000000000000008152600401611bc39392919061507d565b60405180910390fd5b600654841015611c2057611bde612204565b846006546040517f75eb5dd1000000000000000000000000000000000000000000000000000000008152600401611c179392919061507d565b60405180910390fd5b600060075414158015611c465750600754611c39612195565b85611c449190614c7d565b115b15611c7d576040517f950b856e00000000000000000000000000000000000000000000000000000000815260040160405180910390fd5b611ca8611c88612204565b85610e10601887611c9991906150b4565b611ca391906150b4565b613112565b611cb8611cb3612204565b61220c565b4260026000611cc5612204565b73ffffffffffffffffffffffffffffffffffffffff1673ffffffffffffffffffffffffffffffffffffffff16815260200190815260200160002081905550611d14611d0e612204565b856132f1565b611d1c612204565b73ffffffffffffffffffffffffffffffffffffffff167f71a810dd86885cd9fea6e9b97fe8287ec71dd6475db601e9b925679c9f3ec3d14286610e10601888611d6591906150b4565b611d6f91906150b4565b604051611d7e939291906150f6565b60405180910390a283915050611d92612a60565b92915050565b6000611da26133db565b905060008160000160089054906101000a900460ff1615905060008260000160009054906101000a900467ffffffffffffffff1690506000808267ffffffffffffffff16148015611df05750825b9050600060018367ffffffffffffffff16148015611e25575060003073ffffffffffffffffffffffffffffffffffffffff163b145b905081158015611e33575080155b15611e6a576040517ff92ee8a900000000000000000000000000000000000000000000000000000000815260040160405180910390fd5b60018560000160006101000a81548167ffffffffffffffff021916908367ffffffffffffffff1602179055508315611eba5760018560000160086101000a81548160ff0219169083151502179055505b611ed5866060016020810190611ed091906144b6565b613403565b611edd613427565b611f0a7f695baaec64dcea9b360cf4afad33a0f77fe653c0db7609569fc416ae7343b5fb6000801b613439565b611f296000801b876000016020810190611f2491906144b6565b612b2f565b50611f667f695baaec64dcea9b360cf4afad33a0f77fe653c0db7609569fc416ae7343b5fb876020016020810190611f6191906144b6565b612b2f565b5085608001356005819055508560a001356006819055508560c001356007819055508560e0016020810190611f9b91906144b6565b600460006101000a81548173ffffffffffffffffffffffffffffffffffffffff021916908373ffffffffffffffffffffffffffffffffffffffff160217905550856040016020810190611fee91906144b6565b600360006101000a81548173ffffffffffffffffffffffffffffffffffffffff021916908373ffffffffffffffffffffffffffffffffffffffff1602179055506120456277f88060006134a490919063ffffffff16565b5061205d62eff10060006134a490919063ffffffff16565b506120766301e1338060006134a490919063ffffffff16565b5083156120d35760008560000160086101000a81548160ff0219169083151502179055507fc7f505b2f371ae2175ee4913f4499e1f2633a7b5936321eed1cdaeb6115181d260016040516120ca919061517c565b60405180910390a15b505050505050565b60007f695baaec64dcea9b360cf4afad33a0f77fe653c0db7609569fc416ae7343b5fb61210781612af3565b63ef9beeee60e01b7bffffffffffffffffffffffffffffffffffffffffffffffffffffffff19167f01d854e8dde9402801a4c6f2840193465752abfad61e0bb7c4258d526ae42e748460405160200161216091906143e0565b60405160208183030381529060405260405161217c91906151e3565b60405180910390a261218d836134be565b915050919050565b6000806121a0612bd9565b9050806000015491505090565b60006121b76134db565b905060028160000154036121f7576040517f3ee5aeb500000000000000000000000000000000000000000000000000000000815260040160405180910390fd5b6002816000018190555050565b600033905090565b60006122166128f5565b90506000612230838360000161291d90919063ffffffff16565b91505060008260030160008573ffffffffffffffffffffffffffffffffffffffff1673ffffffffffffffffffffffffffffffffffffffff16815260200190815260200160002060010180549050036122895750506128f2565b60008060008460030160008773ffffffffffffffffffffffffffffffffffffffff1673ffffffffffffffffffffffffffffffffffffffff1681526020019081526020016000206001018054905090505b600081111561288557428560030160008873ffffffffffffffffffffffffffffffffffffffff1673ffffffffffffffffffffffffffffffffffffffff1681526020019081526020016000206002016001836123349190614c1a565b8154811061234557612344614c4e565b5b90600052602060002001548660030160008973ffffffffffffffffffffffffffffffffffffffff1673ffffffffffffffffffffffffffffffffffffffff1681526020019081526020016000206000016001846123a19190614c1a565b815481106123b2576123b1614c4e565b5b90600052602060002001546123c79190614c7d565b11612872578460030160008773ffffffffffffffffffffffffffffffffffffffff1673ffffffffffffffffffffffffffffffffffffffff1681526020019081526020016000206000018054905092508460030160008773ffffffffffffffffffffffffffffffffffffffff1673ffffffffffffffffffffffffffffffffffffffff1681526020019081526020016000206001016001826124679190614c1a565b8154811061247857612477614c4e565b5b9060005260206000200154915082810315612725578460030160008773ffffffffffffffffffffffffffffffffffffffff1673ffffffffffffffffffffffffffffffffffffffff1681526020019081526020016000206000016001846124de9190614c1a565b815481106124ef576124ee614c4e565b5b90600052602060002001548560030160008873ffffffffffffffffffffffffffffffffffffffff1673ffffffffffffffffffffffffffffffffffffffff16815260200190815260200160002060000160018361254b9190614c1a565b8154811061255c5761255b614c4e565b5b90600052602060002001819055508460030160008773ffffffffffffffffffffffffffffffffffffffff1673ffffffffffffffffffffffffffffffffffffffff1681526020019081526020016000206001016001846125bb9190614c1a565b815481106125cc576125cb614c4e565b5b90600052602060002001548560030160008873ffffffffffffffffffffffffffffffffffffffff1673ffffffffffffffffffffffffffffffffffffffff1681526020019081526020016000206001016001836126289190614c1a565b8154811061263957612638614c4e565b5b90600052602060002001819055508460030160008773ffffffffffffffffffffffffffffffffffffffff1673ffffffffffffffffffffffffffffffffffffffff1681526020019081526020016000206002016001846126989190614c1a565b815481106126a9576126a8614c4e565b5b90600052602060002001548560030160008873ffffffffffffffffffffffffffffffffffffffff1673ffffffffffffffffffffffffffffffffffffffff1681526020019081526020016000206002016001836127059190614c1a565b8154811061271657612715614c4e565b5b90600052602060002001819055505b81846127319190614c1a565b93508460030160008773ffffffffffffffffffffffffffffffffffffffff1673ffffffffffffffffffffffffffffffffffffffff16815260200190815260200160002060000180548061278757612786615218565b5b600190038181906000526020600020016000905590558460030160008773ffffffffffffffffffffffffffffffffffffffff1673ffffffffffffffffffffffffffffffffffffffff1681526020019081526020016000206001018054806127f1576127f0615218565b5b600190038181906000526020600020016000905590558460030160008773ffffffffffffffffffffffffffffffffffffffff1673ffffffffffffffffffffffffffffffffffffffff16815260200190815260200160002060020180548061285b5761285a615218565b5b600190038181906000526020600020016000905590555b808061287d90614cb1565b9150506122d9565b5061289e8584866000016135039092919063ffffffff16565b508473ffffffffffffffffffffffffffffffffffffffff167f9e819531b9f4f6660e839d7b1ddb93441f1a62e8248416d7807881afecfa2498846040516128e591906143e0565b60405180910390a2505050505b50565b60007f0ce81d75b936ea44989fc6dc3b015771ad68444f0aa2b557b82bc8a876676600905090565b600080600080612949866000018673ffffffffffffffffffffffffffffffffffffffff1660001b613538565b91509150818160001c9350935050509250929050565b60008061296a612bd9565b9050600061297e612979612204565b611a42565b9050808511156129d057612990612204565b85826040517fd929e4430000000000000000000000000000000000000000000000000000000081526004016129c79392919061507d565b60405180910390fd5b60006129ef6129dd612204565b8460010161291d90919063ffffffff16565b91505080861115612a4257612a02612204565b86826040517f4b68b1b9000000000000000000000000000000000000000000000000000000008152600401612a399392919061507d565b60405180910390fd5b612a54612a4d612204565b8688613587565b85935050505092915050565b6000612a6a6134db565b90506001816000018190555050565b60007f7965db0b000000000000000000000000000000000000000000000000000000007bffffffffffffffffffffffffffffffffffffffffffffffffffffffff1916827bffffffffffffffffffffffffffffffffffffffffffffffffffffffff19161480612aec5750612aeb826136b6565b5b9050919050565b612b0481612aff612204565b613720565b50565b60007f02dd7bc7dec4dceedda775e58dd541e08a116c6c53815c0bd028192f7b626800905090565b600080612b3a612c22565b90506000612b488585613771565b90508015612b7957612b778483600001600088815260200190815260200160002061387290919063ffffffff16565b505b809250505092915050565b600080612b8f612c22565b90506000612b9d85856138a2565b90508015612bce57612bcc848360000160008881526020019081526020016000206139a490919063ffffffff16565b505b809250505092915050565b60007f1777a80db1c6a9865545ecb5d27383880a1e667f2012bc238aba256783d9c400905090565b60606000612c11836000016139d4565b905060608190508092505050919050565b60007fc1f6fe24621ce81ec5827caf0253cadb74709b061630e6b55e82371705932000905090565b6000612c598360000183613a30565b60001c905092915050565b6000612c7a826000613a5b90919063ffffffff16565b9050919050565b6000612c8f82600001613a75565b9050919050565b600080612ca16128f5565b90506000612cbb858360000161291d90919063ffffffff16565b91505060008260030160008773ffffffffffffffffffffffffffffffffffffffff1673ffffffffffffffffffffffffffffffffffffffff1681526020019081526020016000206001018054905003612d18576000925050506130f7565b60008060008460030160008973ffffffffffffffffffffffffffffffffffffffff1673ffffffffffffffffffffffffffffffffffffffff1681526020019081526020016000206001018054905090505b600081111561307a57428560030160008a73ffffffffffffffffffffffffffffffffffffffff1673ffffffffffffffffffffffffffffffffffffffff168152602001908152602001600020600201600183612dc39190614c1a565b81548110612dd457612dd3614c4e565b5b90600052602060002001548660030160008b73ffffffffffffffffffffffffffffffffffffffff1673ffffffffffffffffffffffffffffffffffffffff168152602001908152602001600020600001600184612e309190614c1a565b81548110612e4157612e40614c4e565b5b9060005260206000200154612e569190614c7d565b1115613067578460030160008973ffffffffffffffffffffffffffffffffffffffff1673ffffffffffffffffffffffffffffffffffffffff1681526020019081526020016000206000018054905092508460030160008973ffffffffffffffffffffffffffffffffffffffff1673ffffffffffffffffffffffffffffffffffffffff168152602001908152602001600020600101600182612ef79190614c1a565b81548110612f0857612f07614c4e565b5b906000526020600020015482612f1e9190614c7d565b91508460030160008973ffffffffffffffffffffffffffffffffffffffff1673ffffffffffffffffffffffffffffffffffffffff168152602001908152602001600020600001805480612f7457612f73615218565b5b600190038181906000526020600020016000905590558460030160008973ffffffffffffffffffffffffffffffffffffffff1673ffffffffffffffffffffffffffffffffffffffff168152602001908152602001600020600101805480612fde57612fdd615218565b5b600190038181906000526020600020016000905590558460030160008973ffffffffffffffffffffffffffffffffffffffff1673ffffffffffffffffffffffffffffffffffffffff16815260200190815260200160002060020180548061304857613047615218565b5b600190038181906000526020600020016000905590558682101561307a575b808061307290614cb1565b915050612d68565b5061309e87828561308b9190614c1a565b866000016135039092919063ffffffff16565b508673ffffffffffffffffffffffffffffffffffffffff167f8334525b087bd40a461fad9f34d3dd47831c2639f0ff68c8013c0e88c08f311787836040516130e7929190615247565b60405180910390a2809450505050505b92915050565b600061310b82600001613a8a565b9050919050565b80613127816000613a9b90919063ffffffff16565b61315d576040517fbd066f3e00000000000000000000000000000000000000000000000000000000815260040160405180910390fd5b60006131676128f5565b90508060030160008673ffffffffffffffffffffffffffffffffffffffff1673ffffffffffffffffffffffffffffffffffffffff1681526020019081526020016000206000014290806001815401808255809150506001900390600052602060002001600090919091909150558060030160008673ffffffffffffffffffffffffffffffffffffffff1673ffffffffffffffffffffffffffffffffffffffff1681526020019081526020016000206001018490806001815401808255809150506001900390600052602060002001600090919091909150558060030160008673ffffffffffffffffffffffffffffffffffffffff1673ffffffffffffffffffffffffffffffffffffffff16815260200190815260200160002060020183908060018154018082558091505060019003906000526020600020016000909190919091505560006132c2868360000161291d90919063ffffffff16565b9150506132e88686836132d59190614c7d565b846000016135039092919063ffffffff16565b50505050505050565b60006132fb612bd9565b905061332d8160040160009054906101000a900473ffffffffffffffffffffffffffffffffffffffff16843085613ab5565b6000613345848360010161291d90919063ffffffff16565b91505061336b8484836133589190614c7d565b846001016135039092919063ffffffff16565b50828260000160008282546133809190614c7d565b925050819055508373ffffffffffffffffffffffffffffffffffffffff167fe1fffcc4923d04b559f4d29a8bfc6cda04eb5b0d3c460751c2402c5c5cc9109c846040516133cd91906143e0565b60405180910390a250505050565b60007ff0c57e16840df040f15088dc2f81fe391c3923bec73e23a9662efc9c229c6a00905090565b61340b613b37565b613413613b77565b61341b613b81565b61342481613b8b565b50565b61342f613b37565b613437613be6565b565b6000613443612b07565b9050600061345084610f69565b905082826000016000868152602001908152602001600020600101819055508281857fbd79b86ffe0ab8e8776151514217cd7cacd52c909f66475c3af44e129f0b00ff60405160405180910390a450505050565b60006134b6836000018360001b613c07565b905092915050565b60006134d48260006134a490919063ffffffff16565b9050919050565b60007f9b779b17422d0df92223018b32b4d1fa46e071723d6817e2486d003becc55f00905090565b600061352f846000018473ffffffffffffffffffffffffffffffffffffffff1660001b8460001b613c77565b90509392505050565b60008060008460020160008581526020019081526020016000205490506000801b8103613577576135698585613cb2565b6000801b9250925050613580565b60018192509250505b9250929050565b6000613591612bd9565b90506135cb84836135ae8785600101613cd290919063ffffffff16565b6135b89190614c1a565b836001016135039092919063ffffffff16565b50818160000160008282546135e09190614c1a565b9250508190555060006135ff8583600101613cd290919063ffffffff16565b0361361c5761361a8482600101613d0590919063ffffffff16565b505b61364b8160040160009054906101000a900473ffffffffffffffffffffffffffffffffffffffff168484613d35565b8273ffffffffffffffffffffffffffffffffffffffff168473ffffffffffffffffffffffffffffffffffffffff167f9b1bfa7fa9ee420a16e124f794c35ac9f90472acc99140eb2f6447c714cad8eb846040516136a891906143e0565b60405180910390a350505050565b60007f01ffc9a7000000000000000000000000000000000000000000000000000000007bffffffffffffffffffffffffffffffffffffffffffffffffffffffff1916827bffffffffffffffffffffffffffffffffffffffffffffffffffffffff1916149050919050565b61372a82826114f5565b61376d5780826040517fe2517d3f000000000000000000000000000000000000000000000000000000008152600401613764929190615270565b60405180910390fd5b5050565b60008061377c612b07565b905061378884846114f5565b61386657600181600001600086815260200190815260200160002060000160008573ffffffffffffffffffffffffffffffffffffffff1673ffffffffffffffffffffffffffffffffffffffff16815260200190815260200160002060006101000a81548160ff021916908315150217905550613802612204565b73ffffffffffffffffffffffffffffffffffffffff168373ffffffffffffffffffffffffffffffffffffffff16857f2f8788117e7eff1d82e926ec794901d17c78024a50270940304540a733656f0d60405160405180910390a4600191505061386c565b60009150505b92915050565b600061389a836000018373ffffffffffffffffffffffffffffffffffffffff1660001b613c07565b905092915050565b6000806138ad612b07565b90506138b984846114f5565b1561399857600081600001600086815260200190815260200160002060000160008573ffffffffffffffffffffffffffffffffffffffff1673ffffffffffffffffffffffffffffffffffffffff16815260200190815260200160002060006101000a81548160ff021916908315150217905550613934612204565b73ffffffffffffffffffffffffffffffffffffffff168373ffffffffffffffffffffffffffffffffffffffff16857ff6391f5c32d9c69d2a47ea670b442974b53935d1edc7fd64eb21e047a839171b60405160405180910390a4600191505061399e565b60009150505b92915050565b60006139cc836000018373ffffffffffffffffffffffffffffffffffffffff1660001b613db4565b905092915050565b606081600001805480602002602001604051908101604052809291908181526020018280548015613a2457602002820191906000526020600020905b815481526020019060010190808311613a10575b50505050509050919050565b6000826000018281548110613a4857613a47614c4e565b5b9060005260206000200154905092915050565b6000613a6d836000018360001b613db4565b905092915050565b6000613a8382600001613ec8565b9050919050565b600081600001805490509050919050565b6000613aad836000018360001b613edd565b905092915050565b613b31848573ffffffffffffffffffffffffffffffffffffffff166323b872dd868686604051602401613aea93929190615299565b604051602081830303815290604052915060e01b6020820180517bffffffffffffffffffffffffffffffffffffffffffffffffffffffff8381831617835250505050613f00565b50505050565b613b3f613f97565b613b75576040517fd7e6bcf800000000000000000000000000000000000000000000000000000000815260040160405180910390fd5b565b613b7f613b37565b565b613b89613b37565b565b613b93613b37565b6000613b9d612bd9565b9050818160040160006101000a81548173ffffffffffffffffffffffffffffffffffffffff021916908373ffffffffffffffffffffffffffffffffffffffff1602179055505050565b613bee613b37565b6000613bf86134db565b90506001816000018190555050565b6000613c138383613edd565b613c6c578260000182908060018154018082558091505060019003906000526020600020016000909190919091505582600001805490508360010160008481526020019081526020016000208190555060019050613c71565b600090505b92915050565b60008184600201600085815260200190815260200160002081905550613ca98385600001613fb790919063ffffffff16565b90509392505050565b6000613cca8284600001613fce90919063ffffffff16565b905092915050565b6000613cfa836000018373ffffffffffffffffffffffffffffffffffffffff1660001b613fe5565b60001c905092915050565b6000613d2d836000018373ffffffffffffffffffffffffffffffffffffffff1660001b614065565b905092915050565b613daf838473ffffffffffffffffffffffffffffffffffffffff1663a9059cbb8585604051602401613d689291906152d0565b604051602081830303815290604052915060e01b6020820180517bffffffffffffffffffffffffffffffffffffffffffffffffffffffff8381831617835250505050613f00565b505050565b60008083600101600084815260200190815260200160002054905060008114613ebc576000600182613de69190614c1a565b9050600060018660000180549050613dfe9190614c1a565b9050808214613e6d576000866000018281548110613e1f57613e1e614c4e565b5b9060005260206000200154905080876000018481548110613e4357613e42614c4e565b5b90600052602060002001819055508387600101600083815260200190815260200160002081905550505b85600001805480613e8157613e80615218565b5b600190038181906000526020600020016000905590558560010160008681526020019081526020016000206000905560019350505050613ec2565b60009150505b92915050565b6000613ed682600001613a8a565b9050919050565b600080836001016000848152602001908152602001600020541415905092915050565b6000613f2b828473ffffffffffffffffffffffffffffffffffffffff1661409e90919063ffffffff16565b90506000815114158015613f50575080806020019051810190613f4e9190614bbe565b155b15613f9257826040517f5274afe7000000000000000000000000000000000000000000000000000000008152600401613f8991906145ec565b60405180910390fd5b505050565b6000613fa16133db565b60000160089054906101000a900460ff16905090565b6000613fc68360000183613c07565b905092915050565b6000613fdd8360000183613edd565b905092915050565b6000808360020160008481526020019081526020016000205490506000801b8114801561401957506140178484613cb2565b155b1561405b57826040517f02b566860000000000000000000000000000000000000000000000000000000081526004016140529190614582565b60405180910390fd5b8091505092915050565b60008260020160008381526020019081526020016000206000905561409682846000016140b490919063ffffffff16565b905092915050565b60606140ac838360006140cb565b905092915050565b60006140c38360000183613db4565b905092915050565b60608147101561411257306040517fcd78605900000000000000000000000000000000000000000000000000000000815260040161410991906145ec565b60405180910390fd5b6000808573ffffffffffffffffffffffffffffffffffffffff16848660405161413b9190615335565b60006040518083038185875af1925050503d8060008114614178576040519150601f19603f3d011682016040523d82523d6000602084013e61417d565b606091505b509150915061418d868383614198565b925050509392505050565b6060826141ad576141a882614227565b61421f565b600082511480156141d5575060008473ffffffffffffffffffffffffffffffffffffffff163b145b1561421757836040517f9996b31500000000000000000000000000000000000000000000000000000000815260040161420e91906145ec565b60405180910390fd5b819050614220565b5b9392505050565b60008151111561423a5780518082602001fd5b6040517f1425ea4200000000000000000000000000000000000000000000000000000000815260040160405180910390fd5b600082825260208201905092915050565b7f4e6f7420416c6c6f776564000000000000000000000000000000000000000000600082015250565b60006142b3600b8361426c565b91506142be8261427d565b602082019050919050565b600060208201905081810360008301526142e2816142a6565b9050919050565b6000604051905090565b600080fd5b600080fd5b6000819050919050565b614310816142fd565b811461431b57600080fd5b50565b60008135905061432d81614307565b92915050565b600073ffffffffffffffffffffffffffffffffffffffff82169050919050565b600061435e82614333565b9050919050565b61436e81614353565b811461437957600080fd5b50565b60008135905061438b81614365565b92915050565b600080604083850312156143a8576143a76142f3565b5b60006143b68582860161431e565b92505060206143c78582860161437c565b9150509250929050565b6143da816142fd565b82525050565b60006020820190506143f560008301846143d1565b92915050565b60007fffffffff0000000000000000000000000000000000000000000000000000000082169050919050565b614430816143fb565b811461443b57600080fd5b50565b60008135905061444d81614427565b92915050565b600060208284031215614469576144686142f3565b5b60006144778482850161443e565b91505092915050565b60008115159050919050565b61449581614480565b82525050565b60006020820190506144b0600083018461448c565b92915050565b6000602082840312156144cc576144cb6142f3565b5b60006144da8482850161437c565b91505092915050565b6000602082840312156144f9576144f86142f3565b5b60006145078482850161431e565b91505092915050565b6000819050919050565b61452381614510565b811461452e57600080fd5b50565b6000813590506145408161451a565b92915050565b60006020828403121561455c5761455b6142f3565b5b600061456a84828501614531565b91505092915050565b61457c81614510565b82525050565b60006020820190506145976000830184614573565b92915050565b600080604083850312156145b4576145b36142f3565b5b60006145c285828601614531565b92505060206145d38582860161437c565b9150509250929050565b6145e681614353565b82525050565b600060208201905061460160008301846145dd565b92915050565b600081519050919050565b600082825260208201905092915050565b6000819050602082019050919050565b61463c816142fd565b82525050565b600061464e8383614633565b60208301905092915050565b6000602082019050919050565b600061467282614607565b61467c8185614612565b935061468783614623565b8060005b838110156146b857815161469f8882614642565b97506146aa8361465a565b92505060018101905061468b565b5085935050505092915050565b600060208201905081810360008301526146df8184614667565b905092915050565b600060608201905081810360008301526147018186614667565b905081810360208301526147158185614667565b905081810360408301526147298184614667565b9050949350505050565b6000806040838503121561474a576147496142f3565b5b600061475885828601614531565b92505060206147698582860161431e565b9150509250929050565b6000819050919050565b600061479861479361478e84614333565b614773565b614333565b9050919050565b60006147aa8261477d565b9050919050565b60006147bc8261479f565b9050919050565b6147cc816147b1565b82525050565b60006020820190506147e760008301846147c3565b92915050565b6000604082019050614802600083018561448c565b61480f60208301846143d1565b9392505050565b600080fd5b6000601f19601f8301169050919050565b7f4e487b7100000000000000000000000000000000000000000000000000000000600052604160045260246000fd5b6148648261481b565b810181811067ffffffffffffffff821117156148835761488261482c565b5b80604052505050565b60006148966142e9565b90506148a2828261485b565b919050565b600067ffffffffffffffff8211156148c2576148c161482c565b5b602082029050602081019050919050565b600080fd5b60006148eb6148e6846148a7565b61488c565b9050808382526020820190506020840283018581111561490e5761490d6148d3565b5b835b818110156149375780614923888261437c565b845260208401935050602081019050614910565b5050509392505050565b600082601f83011261495657614955614816565b5b81356149668482602086016148d8565b91505092915050565b600067ffffffffffffffff82111561498a5761498961482c565b5b602082029050602081019050919050565b60006149ae6149a98461496f565b61488c565b905080838252602082019050602084028301858111156149d1576149d06148d3565b5b835b818110156149fa57806149e6888261431e565b8452602084019350506020810190506149d3565b5050509392505050565b600082601f830112614a1957614a18614816565b5b8135614a2984826020860161499b565b91505092915050565b60008060408385031215614a4957614a486142f3565b5b600083013567ffffffffffffffff811115614a6757614a666142f8565b5b614a7385828601614941565b925050602083013567ffffffffffffffff811115614a9457614a936142f8565b5b614aa085828601614a04565b9150509250929050565b60008060408385031215614ac157614ac06142f3565b5b6000614acf8582860161431e565b9250506020614ae08582860161431e565b9150509250929050565b600080fd5b60006101008284031215614b0657614b05614aea565b5b81905092915050565b60006101008284031215614b2657614b256142f3565b5b6000614b3484828501614aef565b91505092915050565b614b4681614480565b8114614b5157600080fd5b50565b600081519050614b6381614b3d565b92915050565b600081519050614b7881614307565b92915050565b60008060408385031215614b9557614b946142f3565b5b6000614ba385828601614b54565b9250506020614bb485828601614b69565b9150509250929050565b600060208284031215614bd457614bd36142f3565b5b6000614be284828501614b54565b91505092915050565b7f4e487b7100000000000000000000000000000000000000000000000000000000600052601160045260246000fd5b6000614c25826142fd565b9150614c30836142fd565b9250828203905081811115614c4857614c47614beb565b5b92915050565b7f4e487b7100000000000000000000000000000000000000000000000000000000600052603260045260246000fd5b6000614c88826142fd565b9150614c93836142fd565b9250828201905080821115614cab57614caa614beb565b5b92915050565b6000614cbc826142fd565b915060008203614ccf57614cce614beb565b5b600182039050919050565b7f7365744d61785374616b65537570706c792875696e7432353629000000000000600082015250565b6000614d10601a8361426c565b9150614d1b82614cda565b602082019050919050565b600081519050919050565b600082825260208201905092915050565b60005b83811015614d60578082015181840152602081019050614d45565b60008484015250505050565b6000614d7782614d26565b614d818185614d31565b9350614d91818560208601614d42565b614d9a8161481b565b840191505092915050565b60006040820190508181036000830152614dbe81614d03565b90508181036020830152614dd28184614d6c565b905092915050565b7f736574436f6f6c646f776e2875696e7432353629000000000000000000000000600082015250565b6000614e1060148361426c565b9150614e1b82614dda565b602082019050919050565b60006040820190508181036000830152614e3f81614e03565b90508181036020830152614e538184614d6c565b905092915050565b7f7365744d696e5374616b652875696e7432353629000000000000000000000000600082015250565b6000614e9160148361426c565b9150614e9c82614e5b565b602082019050919050565b60006040820190508181036000830152614ec081614e84565b90508181036020830152614ed48184614d6c565b905092915050565b7f72656d6f76654c6f636b4475726174696f6e2875696e74323536290000000000600082015250565b6000614f12601b8361426c565b9150614f1d82614edc565b602082019050919050565b60006040820190508181036000830152614f4181614f05565b90508181036020830152614f558184614d6c565b905092915050565b7f6c656e677468206d75737420626520657175616c000000000000000000000000600082015250565b6000614f9360148361426c565b9150614f9e82614f5d565b602082019050919050565b60006020820190508181036000830152614fc281614f86565b9050919050565b6000614fd4826142fd565b91507fffffffffffffffffffffffffffffffffffffffffffffffffffffffffffffffff820361500657615005614beb565b5b600182019050919050565b7f73656e64657220666f7262696464656e00000000000000000000000000000000600082015250565b600061504760108361426c565b915061505282615011565b602082019050919050565b600060208201905081810360008301526150768161503a565b9050919050565b600060608201905061509260008301866145dd565b61509f60208301856143d1565b6150ac60408301846143d1565b949350505050565b60006150bf826142fd565b91506150ca836142fd565b92508282026150d8816142fd565b915082820484148315176150ef576150ee614beb565b5b5092915050565b600060608201905061510b60008301866143d1565b61511860208301856143d1565b61512560408301846143d1565b949350505050565b6000819050919050565b600067ffffffffffffffff82169050919050565b600061516661516161515c8461512d565b614773565b615137565b9050919050565b6151768161514b565b82525050565b6000602082019050615191600083018461516d565b92915050565b7f6164644c6f636b4475726174696f6e2875696e74323536290000000000000000600082015250565b60006151cd60188361426c565b91506151d882615197565b602082019050919050565b600060408201905081810360008301526151fc816151c0565b905081810360208301526152108184614d6c565b905092915050565b7f4e487b7100000000000000000000000000000000000000000000000000000000600052603160045260246000fd5b600060408201905061525c60008301856143d1565b61526960208301846143d1565b9392505050565b600060408201905061528560008301856145dd565b6152926020830184614573565b9392505050565b60006060820190506152ae60008301866145dd565b6152bb60208301856145dd565b6152c860408301846143d1565b949350505050565b60006040820190506152e560008301856145dd565b6152f260208301846143d1565b9392505050565b600081905092915050565b600061530f82614d26565b61531981856152f9565b9350615329818560208601614d42565b80840191505092915050565b60006153418284615304565b91508190509291505056fea26469706673582212203796af0c888cd1bda720012143db68619c13922629741dde38a2cccf58b9f26564736f6c63430008140033",
  "linkReferences": {},
  "deployedLinkReferences": {}
}